{
  "contractName": "Multisig",
  "abi": [
    {
      "constant": true,
      "inputs": [
        {
          "name": "",
          "type": "uint256"
        }
      ],
      "name": "contributers",
      "outputs": [
        {
          "name": "",
          "type": "address"
        }
      ],
      "payable": false,
      "stateMutability": "view",
      "type": "function"
    },
    {
      "constant": true,
      "inputs": [
        {
          "name": "",
          "type": "uint256"
        }
      ],
      "name": "signers",
      "outputs": [
        {
          "name": "",
          "type": "address"
        }
      ],
      "payable": false,
      "stateMutability": "view",
      "type": "function"
    },
    {
      "constant": true,
      "inputs": [
        {
          "name": "",
          "type": "address"
        }
      ],
      "name": "isSigner",
      "outputs": [
        {
          "name": "",
          "type": "bool"
        }
      ],
      "payable": false,
      "stateMutability": "view",
      "type": "function"
    },
    {
      "constant": true,
      "inputs": [],
      "name": "isAccepting",
      "outputs": [
        {
          "name": "",
          "type": "bool"
        }
      ],
      "payable": false,
      "stateMutability": "view",
      "type": "function"
    },
    {
      "constant": true,
      "inputs": [],
      "name": "owner",
      "outputs": [
        {
          "name": "",
          "type": "address"
        }
      ],
      "payable": false,
      "stateMutability": "view",
      "type": "function"
    },
    {
      "constant": true,
      "inputs": [
        {
          "name": "",
          "type": "address"
        }
      ],
      "name": "allProposals",
      "outputs": [
        {
          "name": "owner",
          "type": "address"
        },
        {
          "name": "value",
          "type": "uint256"
        },
        {
          "name": "executed",
          "type": "bool"
        }
      ],
      "payable": false,
      "stateMutability": "view",
      "type": "function"
    },
    {
      "constant": true,
      "inputs": [],
      "name": "contractaddress",
      "outputs": [
        {
          "name": "",
          "type": "address"
        }
      ],
      "payable": false,
      "stateMutability": "view",
      "type": "function"
    },
    {
      "constant": true,
      "inputs": [
        {
          "name": "",
          "type": "address"
        }
      ],
      "name": "contributers_balance",
      "outputs": [
        {
          "name": "",
          "type": "uint256"
        }
      ],
      "payable": false,
      "stateMutability": "view",
      "type": "function"
    },
    {
      "inputs": [
        {
          "name": "_signers",
          "type": "address[]"
        }
      ],
      "payable": false,
      "stateMutability": "nonpayable",
      "type": "constructor"
    },
    {
      "payable": true,
      "stateMutability": "payable",
      "type": "fallback"
    },
    {
      "anonymous": false,
      "inputs": [
        {
          "indexed": true,
          "name": "_contributor",
          "type": "address"
        },
        {
          "indexed": false,
          "name": "_valueInWei",
          "type": "uint256"
        }
      ],
      "name": "ReceivedContribution",
      "type": "event"
    },
    {
      "anonymous": false,
      "inputs": [
        {
          "indexed": true,
          "name": "_beneficiary",
          "type": "address"
        },
        {
          "indexed": false,
          "name": "_valueInWei",
          "type": "uint256"
        }
      ],
      "name": "ProposalSubmitted",
      "type": "event"
    },
    {
      "anonymous": false,
      "inputs": [
        {
          "indexed": true,
          "name": "_approver",
          "type": "address"
        },
        {
          "indexed": true,
          "name": "_beneficiary",
          "type": "address"
        },
        {
          "indexed": false,
          "name": "_valueInWei",
          "type": "uint256"
        }
      ],
      "name": "ProposalApproved",
      "type": "event"
    },
    {
      "anonymous": false,
      "inputs": [
        {
          "indexed": true,
          "name": "_approver",
          "type": "address"
        },
        {
          "indexed": true,
          "name": "_beneficiary",
          "type": "address"
        },
        {
          "indexed": false,
          "name": "_valueInWei",
          "type": "uint256"
        }
      ],
      "name": "ProposalRejected",
      "type": "event"
    },
    {
      "anonymous": false,
      "inputs": [
        {
          "indexed": true,
          "name": "_beneficiary",
          "type": "address"
        },
        {
          "indexed": false,
          "name": "_valueInWei",
          "type": "uint256"
        }
      ],
      "name": "WithdrawPerformed",
      "type": "event"
    },
    {
      "anonymous": false,
      "inputs": [],
      "name": "ContributionPeriodIsrunning",
      "type": "event"
    },
    {
      "anonymous": false,
      "inputs": [],
      "name": "SubmitContribution",
      "type": "event"
    },
    {
      "anonymous": false,
      "inputs": [
        {
          "indexed": true,
          "name": "_beneficiary",
          "type": "address"
        },
        {
          "indexed": false,
          "name": "_valueInWei",
          "type": "uint256"
        },
        {
          "indexed": false,
          "name": "_calculated10percent",
          "type": "uint256"
        }
      ],
      "name": "BalanceContract",
      "type": "event"
    },
    {
      "constant": true,
      "inputs": [],
      "name": "listOpenBeneficiariesProposals",
      "outputs": [
        {
          "name": "",
          "type": "address[]"
        }
      ],
      "payable": false,
      "stateMutability": "view",
      "type": "function"
    },
    {
      "constant": false,
      "inputs": [],
      "name": "endContributionPeriod",
      "outputs": [],
      "payable": false,
      "stateMutability": "nonpayable",
      "type": "function"
    },
    {
      "constant": false,
      "inputs": [
        {
          "name": "_valueInWei",
          "type": "uint256"
        }
      ],
      "name": "submitProposal",
      "outputs": [],
      "payable": false,
      "stateMutability": "nonpayable",
      "type": "function"
    },
    {
      "constant": true,
      "inputs": [],
      "name": "listContributors",
      "outputs": [
        {
          "name": "",
          "type": "address[]"
        }
      ],
      "payable": false,
      "stateMutability": "view",
      "type": "function"
    },
    {
      "constant": true,
      "inputs": [
        {
          "name": "_beneficiary",
          "type": "address"
        }
      ],
      "name": "getBeneficiaryProposal",
      "outputs": [
        {
          "name": "",
          "type": "uint256"
        }
      ],
      "payable": false,
      "stateMutability": "view",
      "type": "function"
    },
    {
      "constant": true,
      "inputs": [
        {
          "name": "_contributor",
          "type": "address"
        }
      ],
      "name": "getContributorAmount",
      "outputs": [
        {
          "name": "",
          "type": "uint256"
        }
      ],
      "payable": false,
      "stateMutability": "view",
      "type": "function"
    },
    {
      "constant": false,
      "inputs": [
        {
          "name": "_valueInWei",
          "type": "uint256"
        }
      ],
      "name": "withdraw",
      "outputs": [],
      "payable": false,
      "stateMutability": "nonpayable",
      "type": "function"
    },
    {
      "constant": false,
      "inputs": [
        {
          "name": "_beneficiary",
          "type": "address"
        }
      ],
      "name": "approve",
      "outputs": [],
      "payable": false,
      "stateMutability": "nonpayable",
      "type": "function"
    },
    {
      "constant": false,
      "inputs": [
        {
          "name": "_beneficiary",
          "type": "address"
        }
      ],
      "name": "reject",
      "outputs": [],
      "payable": false,
      "stateMutability": "nonpayable",
      "type": "function"
    }
  ],
  "bytecode": "0x608060405260016000806101000a81548160ff0219169083151502179055503480156200002b57600080fd5b506040516200266f3803806200266f83398101806040528101908080518201929190505050600030600460006101000a81548173ffffffffffffffffffffffffffffffffffffffff021916908373ffffffffffffffffffffffffffffffffffffffff16021790555033600360006101000a81548173ffffffffffffffffffffffffffffffffffffffff021916908373ffffffffffffffffffffffffffffffffffffffff160217905550600090505b81518110156200020a57600160008383815181101515620000f657fe5b9060200190602002015173ffffffffffffffffffffffffffffffffffffffff1673ffffffffffffffffffffffffffffffffffffffff16815260200190815260200160002060009054906101000a900460ff1680620001825750600082828151811015156200016057fe5b9060200190602002015173ffffffffffffffffffffffffffffffffffffffff16145b156200018d57600080fd5b60018060008484815181101515620001a157fe5b9060200190602002015173ffffffffffffffffffffffffffffffffffffffff1673ffffffffffffffffffffffffffffffffffffffff16815260200190815260200160002060006101000a81548160ff0219169083151502179055508080600101915050620000d9565b8160029080519060200190620002229291906200022b565b50505062000300565b828054828255906000526020600020908101928215620002a7579160200282015b82811115620002a65782518260006101000a81548173ffffffffffffffffffffffffffffffffffffffff021916908373ffffffffffffffffffffffffffffffffffffffff160217905550916020019190600101906200024c565b5b509050620002b69190620002ba565b5090565b620002fd91905b80821115620002f957600081816101000a81549073ffffffffffffffffffffffffffffffffffffffff021916905550600101620002c1565b5090565b90565b61235f80620003106000396000f3006080604052600436106100f1576000357c0100000000000000000000000000000000000000000000000000000000900463ffffffff16806302b110821461032b5780631fbed579146103425780632079fb9a146103af578063237819fe1461041c5780632e1a7d4d146104885780632e518464146104b557806359109b641461050c578063736d95aa146105785780637df73e27146105a55780638cc1ff48146106005780638da5cb5b1461062f578063ab0da5a914610686578063ad3e9f81146106c9578063c651aada1461075e578063daea85c5146107b5578063db7fbc86146107f8578063efb9801c1461084f575b6000809054906101000a900460ff16151561010b57600080fd5b6000341115610329576000600560003373ffffffffffffffffffffffffffffffffffffffff1673ffffffffffffffffffffffffffffffffffffffff1681526020019081526020016000205414156101c35760063390806001815401808255809150509060018203906000526020600020016000909192909190916101000a81548173ffffffffffffffffffffffffffffffffffffffff021916908373ffffffffffffffffffffffffffffffffffffffff160217905550505b6000600560003373ffffffffffffffffffffffffffffffffffffffff1673ffffffffffffffffffffffffffffffffffffffff1681526020019081526020016000205411156102955734600560003373ffffffffffffffffffffffffffffffffffffffff1673ffffffffffffffffffffffffffffffffffffffff1681526020019081526020016000205401600560003373ffffffffffffffffffffffffffffffffffffffff1673ffffffffffffffffffffffffffffffffffffffff168152602001908152602001600020819055506102da565b34600560003373ffffffffffffffffffffffffffffffffffffffff1673ffffffffffffffffffffffffffffffffffffffff168152602001908152602001600020819055505b3373ffffffffffffffffffffffffffffffffffffffff167f4af4040804455d5519363ab32562d3354dc05571e414cec4d799a581d6e6b3a7346040518082815260200191505060405180910390a25b005b34801561033757600080fd5b506103406108a6565b005b34801561034e57600080fd5b5061036d60048036038101908080359060200190929190505050610983565b604051808273ffffffffffffffffffffffffffffffffffffffff1673ffffffffffffffffffffffffffffffffffffffff16815260200191505060405180910390f35b3480156103bb57600080fd5b506103da600480360381019080803590602001909291905050506109c1565b604051808273ffffffffffffffffffffffffffffffffffffffff1673ffffffffffffffffffffffffffffffffffffffff16815260200191505060405180910390f35b34801561042857600080fd5b506104316109ff565b6040518080602001828103825283818151815260200191508051906020019060200280838360005b83811015610474578082015181840152602081019050610459565b505050509050019250505060405180910390f35b34801561049457600080fd5b506104b360048036038101908080359060200190929190505050610a8d565b005b3480156104c157600080fd5b506104f6600480360381019080803573ffffffffffffffffffffffffffffffffffffffff169060200190929190505050610e65565b6040518082815260200191505060405180910390f35b34801561051857600080fd5b50610521610eae565b6040518080602001828103825283818151815260200191508051906020019060200280838360005b83811015610564578082015181840152602081019050610549565b505050509050019250505060405180910390f35b34801561058457600080fd5b506105a360048036038101908080359060200190929190505050611167565b005b3480156105b157600080fd5b506105e6600480360381019080803573ffffffffffffffffffffffffffffffffffffffff1690602001909291905050506114b6565b604051808215151515815260200191505060405180910390f35b34801561060c57600080fd5b506106156114d6565b604051808215151515815260200191505060405180910390f35b34801561063b57600080fd5b506106446114e8565b604051808273ffffffffffffffffffffffffffffffffffffffff1673ffffffffffffffffffffffffffffffffffffffff16815260200191505060405180910390f35b34801561069257600080fd5b506106c7600480360381019080803573ffffffffffffffffffffffffffffffffffffffff16906020019092919050505061150e565b005b3480156106d557600080fd5b5061070a600480360381019080803573ffffffffffffffffffffffffffffffffffffffff169060200190929190505050611b15565b604051808473ffffffffffffffffffffffffffffffffffffffff1673ffffffffffffffffffffffffffffffffffffffff16815260200183815260200182151515158152602001935050505060405180910390f35b34801561076a57600080fd5b5061079f600480360381019080803573ffffffffffffffffffffffffffffffffffffffff169060200190929190505050611b6c565b6040518082815260200191505060405180910390f35b3480156107c157600080fd5b506107f6600480360381019080803573ffffffffffffffffffffffffffffffffffffffff169060200190929190505050611bb8565b005b34801561080457600080fd5b5061080d612228565b604051808273ffffffffffffffffffffffffffffffffffffffff1673ffffffffffffffffffffffffffffffffffffffff16815260200191505060405180910390f35b34801561085b57600080fd5b50610890600480360381019080803573ffffffffffffffffffffffffffffffffffffffff16906020019092919050505061224e565b6040518082815260200191505060405180910390f35b600160003373ffffffffffffffffffffffffffffffffffffffff1673ffffffffffffffffffffffffffffffffffffffff16815260200190815260200160002060009054906101000a900460ff161515610967576040517f08c379a00000000000000000000000000000000000000000000000000000000081526004018080602001828103825260128152602001807f6e656564207369676e657220746f20656e64000000000000000000000000000081525060200191505060405180910390fd5b60008060006101000a81548160ff021916908315150217905550565b60068181548110151561099257fe5b906000526020600020016000915054906101000a900473ffffffffffffffffffffffffffffffffffffffff1681565b6002818154811015156109d057fe5b906000526020600020016000915054906101000a900473ffffffffffffffffffffffffffffffffffffffff1681565b60606006805480602002602001604051908101604052809291908181526020018280548015610a8357602002820191906000526020600020905b8160009054906101000a900473ffffffffffffffffffffffffffffffffffffffff1673ffffffffffffffffffffffffffffffffffffffff1681526020019060010190808311610a39575b5050505050905090565b600080600760003373ffffffffffffffffffffffffffffffffffffffff1673ffffffffffffffffffffffffffffffffffffffff16815260200190815260200160002060000160009054906101000a900473ffffffffffffffffffffffffffffffffffffffff1673ffffffffffffffffffffffffffffffffffffffff1614151515610b7f576040517f08c379a00000000000000000000000000000000000000000000000000000000081526004018080602001828103825260208152602001807f4e6f2070726f706f73616c206578697374206f6620746869732073656e64657281525060200191505060405180910390fd5b60011515600760003373ffffffffffffffffffffffffffffffffffffffff1673ffffffffffffffffffffffffffffffffffffffff16815260200190815260200160002060020160009054906101000a900460ff161515141515610c70576040517f08c379a000000000000000000000000000000000000000000000000000000000815260040180806020018281038252602b8152602001807f70726f706f73616c206973207374696c6c20696e20766f74696e67206f72206e81526020017f6f7420617070726f76656400000000000000000000000000000000000000000081525060400191505060405180910390fd5b81600760003373ffffffffffffffffffffffffffffffffffffffff1673ffffffffffffffffffffffffffffffffffffffff1681526020019081526020016000206001015410151515610d2a576040517f08c379a000000000000000000000000000000000000000000000000000000000815260040180806020018281038252601b8152602001807f7468697320616d6f756e74206973206e6f7420617070726f766564000000000081525060200191505060405180910390fd5b6001600760003373ffffffffffffffffffffffffffffffffffffffff1673ffffffffffffffffffffffffffffffffffffffff16815260200190815260200160002060020160006101000a81548160ff02191690831515021790555081600760003373ffffffffffffffffffffffffffffffffffffffff1673ffffffffffffffffffffffffffffffffffffffff1681526020019081526020016000206001015403905080600760003373ffffffffffffffffffffffffffffffffffffffff1673ffffffffffffffffffffffffffffffffffffffff168152602001908152602001600020600101819055503373ffffffffffffffffffffffffffffffffffffffff167ffca010261c61503eba494501406a4775d0887b49857dc75c92d1cc92a20e4e83836040518082815260200191505060405180910390a25050565b6000600560008373ffffffffffffffffffffffffffffffffffffffff1673ffffffffffffffffffffffffffffffffffffffff168152602001908152602001600020549050919050565b6060600080600090505b6006805490508110156110da57600260076000600684815481101515610eda57fe5b9060005260206000200160009054906101000a900473ffffffffffffffffffffffffffffffffffffffff1673ffffffffffffffffffffffffffffffffffffffff1673ffffffffffffffffffffffffffffffffffffffff1681526020019081526020016000206004018054905060076000600685815481101515610f5957fe5b9060005260206000200160009054906101000a900473ffffffffffffffffffffffffffffffffffffffff1673ffffffffffffffffffffffffffffffffffffffff1673ffffffffffffffffffffffffffffffffffffffff168152602001908152602001600020600301805490500110156110cd578160076000600684815481101515610fe057fe5b9060005260206000200160009054906101000a900473ffffffffffffffffffffffffffffffffffffffff1673ffffffffffffffffffffffffffffffffffffffff1673ffffffffffffffffffffffffffffffffffffffff16815260200190815260200160002060000160009054906101000a900473ffffffffffffffffffffffffffffffffffffffff1690806001815401808255809150509060018203906000526020600020016000909192909190916101000a81548173ffffffffffffffffffffffffffffffffffffffff021916908373ffffffffffffffffffffffffffffffffffffffff160217905550505b8080600101915050610eb8565b8180548060200260200160405190810160405280929190818152602001828054801561115b57602002820191906000526020600020905b8160009054906101000a900473ffffffffffffffffffffffffffffffffffffffff1673ffffffffffffffffffffffffffffffffffffffff1681526020019060010190808311611111575b50505050509250505090565b60007f43f72028b17eb02f1ee3fefedc86bb5bf9b2255fb9e64af7d2a1619f4b3cae0860405160405180910390a16000600760003373ffffffffffffffffffffffffffffffffffffffff1673ffffffffffffffffffffffffffffffffffffffff168152602001908152602001600020600101541415156111e657600080fd5b81600560003373ffffffffffffffffffffffffffffffffffffffff1673ffffffffffffffffffffffffffffffffffffffff168152602001908152602001600020541015151561123457600080fd5b600a3073ffffffffffffffffffffffffffffffffffffffff163181151561125757fe5b04905080821115151561126957600080fd5b60a0604051908101604052803373ffffffffffffffffffffffffffffffffffffffff16815260200183815260200160001515815260200160006040519080825280602002602001820160405280156112d05781602001602082028038833980820191505090505b50815260200160006040519080825280602002602001820160405280156113065781602001602082028038833980820191505090505b50815250600760003373ffffffffffffffffffffffffffffffffffffffff1673ffffffffffffffffffffffffffffffffffffffff16815260200190815260200160002060008201518160000160006101000a81548173ffffffffffffffffffffffffffffffffffffffff021916908373ffffffffffffffffffffffffffffffffffffffff1602179055506020820151816001015560408201518160020160006101000a81548160ff02191690831515021790555060608201518160030190805190602001906113d6929190612266565b5060808201518160040190805190602001906113f3929190612266565b509050503373ffffffffffffffffffffffffffffffffffffffff167f9502d7618553b38b99edbe5d1547756cc9ab18db5ddd0674b051490ca4e2fb4c836040518082815260200191505060405180910390a23073ffffffffffffffffffffffffffffffffffffffff167fcc4ebf2a857c23a4b32870e68346bc1a051f083345b80c174eca06fd5f3992e83073ffffffffffffffffffffffffffffffffffffffff163183604051808381526020018281526020019250505060405180910390a25050565b60016020528060005260406000206000915054906101000a900460ff1681565b6000809054906101000a900460ff1681565b600360009054906101000a900473ffffffffffffffffffffffffffffffffffffffff1681565b6000809054906101000a900460ff161561152757600080fd5b600160003373ffffffffffffffffffffffffffffffffffffffff1673ffffffffffffffffffffffffffffffffffffffff16815260200190815260200160002060009054906101000a900460ff16151561157f57600080fd5b60001515600760008373ffffffffffffffffffffffffffffffffffffffff1673ffffffffffffffffffffffffffffffffffffffff16815260200190815260200160002060050160003373ffffffffffffffffffffffffffffffffffffffff1673ffffffffffffffffffffffffffffffffffffffff16815260200190815260200160002060009054906101000a900460ff161515141515611687576040517f08c379a000000000000000000000000000000000000000000000000000000000815260040180806020018281038252600d8152602001807f616c726561647920766f7465640000000000000000000000000000000000000081525060200191505060405180910390fd5b60001515600760008373ffffffffffffffffffffffffffffffffffffffff1673ffffffffffffffffffffffffffffffffffffffff16815260200190815260200160002060020160009054906101000a900460ff161515141515611752576040517f08c379a00000000000000000000000000000000000000000000000000000000081526004018080602001828103825260198152602001807f616c726561647920676f74206d6178696d756d20766f7465730000000000000081525060200191505060405180910390fd5b600760008273ffffffffffffffffffffffffffffffffffffffff1673ffffffffffffffffffffffffffffffffffffffff1681526020019081526020016000206004013390806001815401808255809150509060018203906000526020600020016000909192909190916101000a81548173ffffffffffffffffffffffffffffffffffffffff021916908373ffffffffffffffffffffffffffffffffffffffff160217905550506002600760008373ffffffffffffffffffffffffffffffffffffffff1673ffffffffffffffffffffffffffffffffffffffff16815260200190815260200160002060040180549050600760008473ffffffffffffffffffffffffffffffffffffffff1673ffffffffffffffffffffffffffffffffffffffff1681526020019081526020016000206003018054905001101515611a6b57600760008273ffffffffffffffffffffffffffffffffffffffff1673ffffffffffffffffffffffffffffffffffffffff16815260200190815260200160002060040180549050600760008373ffffffffffffffffffffffffffffffffffffffff1673ffffffffffffffffffffffffffffffffffffffff16815260200190815260200160002060030180549050111561197c576001600760008373ffffffffffffffffffffffffffffffffffffffff1673ffffffffffffffffffffffffffffffffffffffff16815260200190815260200160002060020160006101000a81548160ff0219169083151502179055505b600760008273ffffffffffffffffffffffffffffffffffffffff1673ffffffffffffffffffffffffffffffffffffffff16815260200190815260200160002060040180549050600760008373ffffffffffffffffffffffffffffffffffffffff1673ffffffffffffffffffffffffffffffffffffffff168152602001908152602001600020600301805490501015611a6a576000600760008373ffffffffffffffffffffffffffffffffffffffff1673ffffffffffffffffffffffffffffffffffffffff16815260200190815260200160002060020160006101000a81548160ff0219169083151502179055505b5b8073ffffffffffffffffffffffffffffffffffffffff163373ffffffffffffffffffffffffffffffffffffffff167ff810df3b626605dbc005192086f67ae1f96ccb46b942d17dc90f159a1018298e600760008573ffffffffffffffffffffffffffffffffffffffff1673ffffffffffffffffffffffffffffffffffffffff168152602001908152602001600020600101546040518082815260200191505060405180910390a350565b60076020528060005260406000206000915090508060000160009054906101000a900473ffffffffffffffffffffffffffffffffffffffff16908060010154908060020160009054906101000a900460ff16905083565b6000600760008373ffffffffffffffffffffffffffffffffffffffff1673ffffffffffffffffffffffffffffffffffffffff168152602001908152602001600020600101549050919050565b6000809054906101000a900460ff1615611bd157600080fd5b600160003373ffffffffffffffffffffffffffffffffffffffff1673ffffffffffffffffffffffffffffffffffffffff16815260200190815260200160002060009054906101000a900460ff161515611c92576040517f08c379a00000000000000000000000000000000000000000000000000000000081526004018080602001828103825260168152602001807f6e656564207369676e657220746f20617070726f76650000000000000000000081525060200191505060405180910390fd5b60001515600760008373ffffffffffffffffffffffffffffffffffffffff1673ffffffffffffffffffffffffffffffffffffffff16815260200190815260200160002060050160003373ffffffffffffffffffffffffffffffffffffffff1673ffffffffffffffffffffffffffffffffffffffff16815260200190815260200160002060009054906101000a900460ff161515141515611d9a576040517f08c379a000000000000000000000000000000000000000000000000000000000815260040180806020018281038252600d8152602001807f616c726561647920766f7465640000000000000000000000000000000000000081525060200191505060405180910390fd5b60001515600760008373ffffffffffffffffffffffffffffffffffffffff1673ffffffffffffffffffffffffffffffffffffffff16815260200190815260200160002060020160009054906101000a900460ff161515141515611e65576040517f08c379a00000000000000000000000000000000000000000000000000000000081526004018080602001828103825260198152602001807f616c72656164792068617665206d6178696d696d20766f74650000000000000081525060200191505060405180910390fd5b600760008273ffffffffffffffffffffffffffffffffffffffff1673ffffffffffffffffffffffffffffffffffffffff1681526020019081526020016000206003013390806001815401808255809150509060018203906000526020600020016000909192909190916101000a81548173ffffffffffffffffffffffffffffffffffffffff021916908373ffffffffffffffffffffffffffffffffffffffff160217905550506002600760008373ffffffffffffffffffffffffffffffffffffffff1673ffffffffffffffffffffffffffffffffffffffff16815260200190815260200160002060040180549050600760008473ffffffffffffffffffffffffffffffffffffffff1673ffffffffffffffffffffffffffffffffffffffff168152602001908152602001600020600301805490500110151561217e57600760008273ffffffffffffffffffffffffffffffffffffffff1673ffffffffffffffffffffffffffffffffffffffff16815260200190815260200160002060040180549050600760008373ffffffffffffffffffffffffffffffffffffffff1673ffffffffffffffffffffffffffffffffffffffff16815260200190815260200160002060030180549050111561208f576001600760008373ffffffffffffffffffffffffffffffffffffffff1673ffffffffffffffffffffffffffffffffffffffff16815260200190815260200160002060020160006101000a81548160ff0219169083151502179055505b600760008273ffffffffffffffffffffffffffffffffffffffff1673ffffffffffffffffffffffffffffffffffffffff16815260200190815260200160002060040180549050600760008373ffffffffffffffffffffffffffffffffffffffff1673ffffffffffffffffffffffffffffffffffffffff16815260200190815260200160002060030180549050101561217d576000600760008373ffffffffffffffffffffffffffffffffffffffff1673ffffffffffffffffffffffffffffffffffffffff16815260200190815260200160002060020160006101000a81548160ff0219169083151502179055505b5b8073ffffffffffffffffffffffffffffffffffffffff163373ffffffffffffffffffffffffffffffffffffffff167f6785be290ed8ae6f56ea596a5b8b77b39d1c96fa2f2d17de1c58be88bb67af4d600760008573ffffffffffffffffffffffffffffffffffffffff1673ffffffffffffffffffffffffffffffffffffffff168152602001908152602001600020600101546040518082815260200191505060405180910390a350565b600460009054906101000a900473ffffffffffffffffffffffffffffffffffffffff1681565b60056020528060005260406000206000915090505481565b8280548282559060005260206000209081019282156122df579160200282015b828111156122de5782518260006101000a81548173ffffffffffffffffffffffffffffffffffffffff021916908373ffffffffffffffffffffffffffffffffffffffff16021790555091602001919060010190612286565b5b5090506122ec91906122f0565b5090565b61233091905b8082111561232c57600081816101000a81549073ffffffffffffffffffffffffffffffffffffffff0219169055506001016122f6565b5090565b905600a165627a7a72305820599d711721d1f68f12723b38faef34c01768daaf0e1553d5464aef645e98b4fe0029",
  "source": "pragma solidity ^0.4.4;\ncontract Multisig {\n\n  event ReceivedContribution(address indexed _contributor, uint _valueInWei);\n  event ProposalSubmitted(address indexed _beneficiary, uint _valueInWei);\n  event ProposalApproved(address indexed _approver, address indexed _beneficiary, uint _valueInWei);\n  event ProposalRejected(address indexed _approver, address indexed _beneficiary, uint _valueInWei);\n  event WithdrawPerformed(address indexed _beneficiary, uint _valueInWei);\n  event ContributionPeriodIsrunning();\n  event SubmitContribution();\n\n\n  //events\nevent BalanceContract(address indexed _beneficiary, uint _valueInWei, uint _calculated10percent);\n\n\n\n\n  //mapping (uint => proposals) public proposals;\n  bool public isAccepting = true ;\n  mapping (address => bool) public isSigner;\n  address[] public signers;\n  address public owner;\n\n  address public contractaddress;\n\n   mapping (address => uint) public contributers_balance;\n   address[] public contributers;\n\n\n   mapping (address => Proposal) public allProposals;\n\n   struct Proposal {\n        address owner;\n        uint value;\n         bool executed;\n        address[] approved;\n        address[] rejected;\n        mapping(address=>bool) voted;\n\n     }\n\n\n     function listOpenBeneficiariesProposals() external view returns (address[]){\n       address[]  storage listOpenBeneficiariesProposals;\n         for (uint i=0; i<contributers.length; i++) {\n             if(allProposals[contributers[i]].approved.length+allProposals[contributers[i]].rejected.length<2){\n                 listOpenBeneficiariesProposals.push(allProposals[contributers[i]].owner);\n             }\n        }\n\n        return listOpenBeneficiariesProposals;\n     }\n\n\n\n  constructor(address[] _signers) {\n      contractaddress = address(this);\n      owner = msg.sender;\n         for (uint i=0; i<_signers.length; i++) {\n            if (isSigner[_signers[i]] || _signers[i] == 0)\n                revert();\n            isSigner[_signers[i]] = true;\n        }\n        signers = _signers;\n    }\n\n  function endContributionPeriod() external{\n     require(isSigner[msg.sender],\"need signer to end\");\n      isAccepting = false;\n\n  }\n\n   modifier isInContributionPeriod() {\n        if (isAccepting)\n             revert();\n        _;\n    }\n\n     modifier isNotInContributionPeriod() {\n        if (!isAccepting)\n             revert();\n        _;\n    }\n\n      ///  Fallback function allows to deposit ether.\n    function() payable\n    {\n        if(!isAccepting){\n            revert();\n        }\n        if (msg.value > 0){\n            //push only if contributer is not already in that array\n            if(contributers_balance[msg.sender] == 0)\n            {\n                contributers.push(msg.sender);\n\n            }\n\n             if(contributers_balance[msg.sender] > 0)\n            {\n             contributers_balance[msg.sender] = contributers_balance[msg.sender]+msg.value;\n\n            }else{\n             contributers_balance[msg.sender] = msg.value;\n\n            }\n\n         emit ReceivedContribution(msg.sender, msg.value);\n    }\n    }\n\n        function submitProposal(uint _valueInWei) external  {\n            // only contributer can send the Proposal\n         emit   SubmitContribution();\n         //dont allow to add one more proposal\n            require(allProposals[msg.sender].value == 0);\n            require(contributers_balance[msg.sender]>=_valueInWei);\n            // propasal value should be equal or less than 10% of available balance\n            uint balanceshouldbelessthan = address(this).balance/10;\n            require(_valueInWei<= balanceshouldbelessthan);\n             allProposals[msg.sender] = Proposal({\n             owner:msg.sender,\n\n\n\n        //   withdrawhistory:null;\n          approved:new address[](0),\n          rejected:new address[](0),\n\n\n\n             value: _valueInWei,\n             executed: false\n\n        });\n  emit ProposalSubmitted(msg.sender,  _valueInWei);\n  emit BalanceContract(address(this) ,address(this).balance , balanceshouldbelessthan);\n\n       }\n\n\n     function listContributors() external view returns (address[]){\n          return contributers;\n     }\n\n     function getBeneficiaryProposal(address _beneficiary) external view returns (uint){\n         return allProposals[_beneficiary].value;\n     }\n\n     function getContributorAmount(address _contributor) external view returns (uint){\n        return contributers_balance[_contributor];\n     }\n\n     function withdraw(uint _valueInWei) external {\n\n         //count votes\n\n         //check if all has given votes\n        // require((allProposals[msg.sender].approved.length + allProposals[msg.sender].rejected.length)==3);\n\n\n         require(allProposals[msg.sender].owner!=0,'No proposal exist of this sender');\n\n         require(allProposals[msg.sender].executed==true,\"proposal is still in voting or not approved\");\n         require(allProposals[msg.sender].value >= _valueInWei ,\"this amount is not approved\");\n\n         allProposals[msg.sender].executed = true;\n\n         uint newvalue =  allProposals[msg.sender].value -_valueInWei;\n         allProposals[msg.sender].value =newvalue;\n\n         msg.sender.call.value(_valueInWei);\n\n        emit WithdrawPerformed(msg.sender,  _valueInWei);\n\n\n\n     }\n\n\n\n      function approve(address _beneficiary) external  {\n            if(isAccepting){\n            revert();\n        }\n          require(isSigner[msg.sender],\"need signer to approve\");\n          //should not be already voted\n           require(allProposals[_beneficiary].voted[msg.sender]==false,\"already voted\") ;\n           require(allProposals[_beneficiary].executed==false,\"already have maximim vote\");\n           allProposals[_beneficiary].approved.push(msg.sender);\n\n            //check if all has given votes\n         if((allProposals[_beneficiary].approved.length + allProposals[_beneficiary].rejected.length)>=2){\n\n              if(allProposals[_beneficiary].approved.length>allProposals[_beneficiary].rejected.length){\n                  allProposals[_beneficiary].executed = true;\n              }\n\n              if(allProposals[_beneficiary].approved.length<allProposals[_beneficiary].rejected.length){\n                  allProposals[_beneficiary].executed = false;\n              }\n         }\n\n\n\n\n\n     emit ProposalApproved(msg.sender, _beneficiary, allProposals[_beneficiary].value);\n\n\n      }\n     function reject(address _beneficiary) external  {\n           if(isAccepting){\n            revert();\n        }\n\n         require(isSigner[msg.sender]);\n\n            require(allProposals[_beneficiary].voted[msg.sender]==false,'already voted') ;\n           require(allProposals[_beneficiary].executed==false,\"already got maximum votes\");\n           allProposals[_beneficiary].rejected.push(msg.sender);\n\n            if((allProposals[_beneficiary].approved.length + allProposals[_beneficiary].rejected.length)>=2){\n\n              if(allProposals[_beneficiary].approved.length>allProposals[_beneficiary].rejected.length){\n                  allProposals[_beneficiary].executed = true;\n              }\n\n              if(allProposals[_beneficiary].approved.length<allProposals[_beneficiary].rejected.length){\n                  allProposals[_beneficiary].executed = false;\n              }\n         }\n\n\n        emit ProposalRejected(msg.sender, _beneficiary, allProposals[_beneficiary].value);\n\n     }\n\n     }\n\n\n\n\n\n\n\n",
  "sourcePath": "/Users/nickyg/Documents/workspace/src/github.com/niktrix/multi/contracts/MultiSig.sol",
  "compiler": {
    "name": "solc",
    "version": "0.4.24+commit.e67f0147.Emscripten.clang"
  },
  "schemaVersion": "2.0.1",
  "updatedAt": "2018-07-09T16:05:54.320Z"
}